:100000000C945A000C9477000C9477000C94B00078
:100010000C9477000C9477000C9477000C94770084
:100020000C9477000C9477000C9477000C94770074
:100030000C9477000C9477000C9477000C94770064
:100040000C9477000C9477000C9477000C94770054
:100050000C9477000C9477000C9477000C94770044
:100060000C9477000C9477000C9477000C94770034
:100070000C9477000C9477000C9477000C94770024
:100080000C9477000C9477000C9477000C94770014
:100090000C9477000C9477000C9477000C94770004
:1000A0000C9477000C9477000C9477000C947700F4
:1000B0000C94770011241FBECFEFD8E0DEBFCDBF78
:1000C00011E0A0E0B1E0E2E6F2E002C005900D929E
:1000D000A830B107D9F721E0A8E0B1E001C01D9236
:1000E000AA30B207E1F70E948A000C942F010C9409
:1000F0000000181619066CF420E030E0EFE3FCE98C
:100100003197F1F700C000002F5F3F4F8217930730
:10011000A9F7089580E284B92F9A2D98E8E6F0E0D7
:10012000808181608083EBE6F0E08081806880835D
:100130007894809104019091050190930901809336
:1001400008012D9880910801909109010E94790081
:100150002D9A80910801909109010E947900F1CFB8
:100160001F920F920FB60F9211242F933F935F931C
:100170006F937F938F939F93AF93BF9323B183B17B
:1001800030E090E08F772817390799F180910001CE
:10019000909101018130910571F082309105A1F0BB
:1001A000892BD1F480910601909107019093090168
:1001B0008093080111C080910401909105019093F2
:1001C00009018093080108C0809102019091030108
:1001D00090930901809308018091000190910101A1
:1001E000019663E070E00E94070190930101809303
:1001F0000001BF91AF919F918F917F916F915F911E
:100200003F912F910F900FBE0F901F90189597FB65
:10021000072E16F4009407D077FD09D00E941B0129
:1002200007FC05D03EF4909581959F4F08957095F9
:1002300061957F4F0895AA1BBB1B51E107C0AA1F00
:10024000BB1FA617B70710F0A61BB70B881F991F77
:100250005A95A9F780959095BC01CD010895F89421
:02026000FFCFCE
:08026200010005000A00320052
:00000001FF
